:020000040000FA
:0400000009EF00F014
:0E0008007F8250EC08F07F9211005EEF06F050
:1002000000020406080A0C0E1214161A1C02040638
:10021000080A0C0E1214161A1C020406080A0C0E08
:100220001214161A1C020406080A0C0E1214161ACE
:100230001C43555252454E542054494D453A0055A1
:10024000534552204E414D453A00444553542E509B
:100250004F52543A005245432E504F52543A0000E8
:10026000D7D0010E2D6E2D5027EC07F0010E2E6E0B
:10027000D5EC07F02A6E2B04D8A41200010E306EC4
:10028000040E2E6E5D5014EC08F01200020E2D6E5E
:100290002D5027EC07F0020E2E6ED5EC07F02A6EDB
:1002A0002B50D8B41200010E306E040E2E6E5D502D
:1002B00014EC08F01200040E2D6E2D5027EC07F000
:1002C000030E2E6ED5EC07F02A6E2B50D8B4120018
:1002D000010E306E040E2E6E5D5014EC08F012000C
:1002E000080E2D6E2D5027EC07F0000E2E6ED5EC6B
:1002F00007F02A6E2B50D8B41200010E306E040E97
:100300002E6E5D5014EC08F01200000E306E5D5041
:10031000626E636A646A656ADFEC06F062C0CAF006
:1003200063C0CBF064C0CCF065C0CDF00001CD510E
:10033000CC11CB1104E1080ECA5DD8A012002B50DD
:10034000D8B412D0050E2E6E5C50626E636A646A79
:10035000656ADFEC06F062C001F063C002F064C0C1
:1003600003F065C004F01200000E2E6E12005CEC6B
:1003700008F05C5014EC08F012000450031006E181
:10038000A00E015C0F0E0258D8A002D0000E296EFC
:10039000FAEC02F0070E2E6E120026502518D8A493
:1003A00009D00450031006E1A10E015C0F0E0258A3
:1003B000D8A019D02650060D770EF3247A6E010EC0
:1003C000F4207B6E29507A24D96E000E7B20DA6EE1
:1003D0002750C60FE16EE26ADFCFE7FF272A000E43
:1003E000296E27C02FF07EEC08F07D6E7D50D8A4DA
:1003F000E4EC03F0000E2E6E26C025F03104D8A4E4
:100400001200000E2E6E0C0E266E000E316E1200C3
:100410002E507A6E7B6A7B50000AD8A412007A5064
:10042000000AD8B41ED7010AD8B430D7030AD8B40A
:1004300042D7010AD8B454D7070AD8B466D7010AFC
:10044000D8B495D7030AD8B498D7010AD8B4A5D799
:100450000F0A1200A7D04350D8A406D04A0E786ED7
:10046000F5EC04F0436E1200010E476E010E6F6E44
:10047000000EA0EC04F0000E436E120082EC08F0B7
:10048000030AD8A41200020E476E1200000E6DEC93
:1004900008F00001D26F010E6DEC08F00001D36F7F
:1004A000020E6DEC08F00001D46F030E6DEC08F045
:1004B0000001D56F030E476E36EC08F0000E6F6E2C
:1004C000000EA0EC04F012004350D8A406D0550E44
:1004D000786EF5EC04F0436E1200040E476E010EC8
:1004E0006F6E000EA0EC04F0C6D782EC08F0030A91
:1004F000D8A4120080EC08F0E806D8A41200050E7B
:10050000476E1200000E6DEC08F00001CE6F010E78
:100510006DEC08F00001CF6F020E6DEC08F00001E9
:10052000D06F030E6DEC08F00001D16F060E476E20
:1005300036EC08F0000E6F6E000EA0EC04F0120016
:100540004350D8A406D03F0E786EF5EC04F0436E0D
:100550001200070E476E010E6F6E000EA0EC04F045
:100560008AD782EC08F0020AD8A41200080E476E5F
:100570001200000E6DEC08F00001DA6F010E6DEC58
:1005800008F00001DB6F020E6DEC08F00001DC6F7B
:10059000090E476E36EC08F0000E6F6E000EA0ECF0
:1005A00004F0120047507B6E7C6A7C50000AD8A48D
:1005B00012007B50000AD8B44ED7010AD8B45ED7D7
:1005C000030AD8B463D7010AD8B47ED7070AD8B4CF
:1005D0008CD7010AD8B496D7030AD8B4B1D7010A88
:1005E000D8B4BFD70F0AD8B4C4D7010AD8B4120000
:1005F000030A12002D04D8A421D02A04D8A402D0C2
:10060000000E266E020E2A18D8A40AD0030E29184E
:10061000D8A403D0000E296E01D0292A010E266E1F
:10062000040E2A18D8A40AD0030E2918D8A403D07F
:10063000000E296E01D0292A020E266E020E2D18F8
:10064000D8A419D02A04D8A402D0030E266E020E14
:100650002A18D8A402D0040E266E040E2A18D8A494
:1006600002D0050E266E030E2918D8A403D0000E62
:10067000296E01D0292A040E2D18D8A419D02A04D5
:10068000D8A402D0060E266E020E2A18D8A402D0D4
:10069000070E266E040E2A18D8A402D0080E266E65
:1006A000030E2918D8A403D0000E296E01D0292AE0
:1006B000080E2D18D8A412002A04D8A404D0000EC5
:1006C000296E090E266E020E2A18D8A409D0290414
:1006D000D8A403D0000E296E01D0292A0A0E266E56
:1006E000040E2A18D8A412000B0E266E1200786E83
:1006F000610E626E48EC07F078C058F077C057F092
:10070000000E556E55C056F0939493929390000E40
:100710007A6E000E796E000E6F6E640E6E6E615012
:100720008DEC06F0030EB9EC05F0000E6F6E050EB1
:100730006E6E61508DEC06F0030EB9EC05F0000E04
:100740006F6E010E6E6E61508DEC06F0030EB9EC0B
:1007500005F0000E6F6E010E6E6E61508DEC06F0AE
:10076000020EB9EC05F0000E6F6E010E6E6E615058
:100770008DEC06F0280EBCEC07F0B9EC06F0080E84
:10078000BCEC07F0B9EC06F0010EBCEC07F0000E73
:100790006F6E030E6E6E61508DEC06F0B9EC06F0D4
:1007A000060EBCEC07F0B9EC06F00F0EBCEC07F03F
:1007B000794A7A2A7ABEAFD77A5005E1020E795C7F
:1007C000D8B01200A8D712005C50626E636A646AE7
:1007D000656ADFEC06F062C001F063C002F064C03D
:1007E00003F065C004F0045003100BE1A00E015C9F
:1007F0000F0E0258D8B005D0010E6F6E2750A0EC36
:1008000004F00450031006E1A10E015C0F0E025823
:10081000D8A003D0272A27C02FF02650060D780E27
:10082000F324786E010EF420796E29507824D96E65
:10083000000E7920DA6EDF50D8A402D0010E296EA6
:10084000040E2718D8A408D0000E2F6E2768010EBA
:10085000316E010E286E14D0040E276011D0265080
:10086000060D780EF324786E010EF420796E29506F
:100870007824D96E000E7920DA6EDF503BEC05F05B
:10088000040E2E6E1200312E4C4953542041434326
:1008900045535320504F494E5453322E53484F57CF
:1008A00020434F4E4E2E2053544154555320332E47
:1008B0004348414E47452043484154204D4F44450D
:1008C0002020342E454E5445522043484154204D5B
:1008D0004F4445202020352E4C495354204C415341
:1008E00054204D5347532E202020362E434C4F5337
:1008F0004520434F4E4E454354494F4E2020310032
:1009000000000000414243320000444546330000ED
:100910004748493400004A4B4C3500004D4E4F3695
:100920000000505152533700545556380000575864
:10093000595A39002A000000000030200000000051
:10094000766E36D06F50D8B404D0000E736E400E61
:1009500003D0000E736E000E726E76507224746EA9
:10096000000E7320756E36D076C074F0756A6F0411
:10097000D8A402D0400E05D0020E6F18D8A404D01F
:1009800057507426000E0ED0030E6F18D8A422D034
:100990005750706E716A400E7026000E71227050B2
:1009A00074267150752216D076C074F0756A12D014
:1009B0005850706E716A7150000AD8A4F5D7705003
:1009C000010AD8B4F1D7030AD8B4BCD7060AD8B400
:1009D000CBD7EAD7B9EC06F074508009BCEC07F02D
:1009E0006FC056F076C055F0120033D0000E0A6E7C
:1009F000000E096E010E546E000E1200785009248C
:100A0000796E79C0F6FF020EF76E0800F550000906
:100A1000D8B40DD078500924796E79C0F6FF020E53
:100A2000F76E0800F5503BEC05F0094A0A2A7850A9
:100A30000924796E79C0F6FF020EF76E0800F550B2
:100A40000009D8A4D9D7020ED6D7000E546E010ED5
:100A500012005450796E7A6A7A50000AD8A41200B3
:100A60007950000AD8B4C2D7010AD8B4C7D7030A4C
:100A7000D8A41200EAD7776EB9EC06F07750A3EC51
:100A800007F0552A030E5818D8A411D0130E556438
:100A90001200000E556E562A030E566402D0000E48
:100AA000566E56C06FF05550A0EC04F01200020EC6
:100AB0005818D8A411D0270E55641200000E556E98
:100AC000562A010E566402D0000E566E56C06FF0C4
:100AD0005550A0EC04F012005604D8A41200270EC2
:100AE000556402D0000E556E56C06FF05550A0EC04
:100AF00004F0120026D0010E246EC2821200C2B28F
:100B00001200020E246EC4CF22F01200460E2260A4
:100B100005D0550E236E000E246E1200030E246EB7
:100B20001200B40E226405D0440E236E000E246E13
:100B30001200040E246E12004D0E236E000E246E61
:100B400012002450626E636A6350000AD8A4120037
:100B50006250000AD8B4CFD7010AD8B4D0D7030A5C
:100B6000D8B4D4D7010AD8B4DCD7070AD8A4120065
:100B7000E3D7636E9690939A939893968A908A920D
:100B80008A848A8463A603D0626A622A01D0626A78
:100B90008D506218FE0B62188D6E63A403D0626ADA
:100BA000622A01D0626A623A62468A506218DF0B9A
:100BB00062188A6E63A203D0626A622A01D0626AF6
:100BC000623A8A506218EF0B62188A6E63A003D0F3
:100BD000626A622A01D0626A6246624662468A504E
:100BE0006218F70B62188A6E8A941200636E63A60D
:100BF00003D0626A622A01D0626A8D506218FE0BCD
:100C000062188D6E63A403D0626A622A01D0626AA0
:100C1000623A62468A506218DF0B62188A6E63A2DB
:100C200003D0626A622A01D0626A623A8A5062180C
:100C3000EF0B62188A6E63A003D0626A622A01D049
:100C4000626A6246624662468A506218F70B621810
:100C50008A6E1200636E63AE03D0626A622A01D0AC
:100C6000626A8D506218FE0B62188D6E63AC03D001
:100C7000626A622A01D0626A623A62468A506218E7
:100C8000DF0B62188A6E63AA03D0626A622A01D0FF
:100C9000626A623A8A506218EF0B62188A6E63A821
:100CA00003D0626A622A01D0626A62466246624684
:100CB0008A506218F70B62188A6E1200860EF66E62
:100CC000080EF76E000EF86E01EE00F010EEBAF0AE
:100CD0000900F5CFEEFFE550E150FAE1080EF66E9F
:100CE000110EF76E000EF86E0900F5CF7DF00900C9
:100CF000F5CF7EF000EE80F07B0EEE6AE806FDE1B7
:100D000000EE01F0610EEE6AE806FDE17F907F9251
:100D1000000EF86E000104EF07F0766E765014ECCA
:100D200008F06EC070F06FC071F0703A713AF00E5A
:100D3000711670500F0B7112F00E701670C072F0B9
:100D400071C073F0000E73BEFF0E746E756E765038
:100D5000626E636A646A656ADFEC06F07250625C18
:100D6000735063587450645875506558D8B0120069
:100D7000D8D79680938A938893868A908A82615086
:100D800014EC08F08A848A84000E84B0010E6E6E22
:100D90008A948A948A848A848A948A946150626E3E
:100DA000636A646A656ADFEC06F06250631064107F
:100DB0006510D8A412006E50D8B41200E3D7F29E8A
:100DC00005C06AF006C06BF007C06CF008C06DF09B
:100DD000F28E6250050DF350800FD96EDA6ADECFC5
:100DE00066F0DECF67F0DECF68F0DECF69F06650E8
:100DF0006A5C626E67506B58636E68506C58646EC4
:100E000069506D58656E120079EC08F0EBEC07F054
:100E100085EC07F0100E776E020E77EC03F067ECAE
:100E200007F0000E6F6E000EA0EC04F065EC08F009
:100E300001EC08F026EC08F043EC08F074EC08F044
:100E40002AEC02F030EC01F07AEC05F0F9D7626E92
:100E50006204D8A404D08B828D928B9A8B96020E5A
:100E60006218D8A404D08B928D828B9A8B96040E34
:100E70006218D8A404D08B928D928B8A8B96080E20
:100E80006218D8A412008B928D928B9A8B861200D6
:100E9000000E646E05D0642A090E6418D8B41200DE
:100EA0006450050DF350840FD96EDA6ADE04D8B4AD
:100EB000F2D76450050DF350840FD96EDA6A010E33
:100EC000DF6E6250D96EDA6A64C0DFFF1200080E6E
:100ED0002D6E000E276E5D0E626E48EC07F05C0E04
:100EE000626E48EC07F05C5014EC08F0948494882F
:100EF00094809692949A94969492000E2E6E000E80
:100F00002B6E2768000E286E1200000E476E000E32
:100F1000436E000E406E600E626E48EC07F060504B
:100F200014EC08F05F0E626E48EC07F05F5014ECB2
:100F300008F05E0E626E48EC07F05E5014EC08F0AC
:100F4000000E456E1200646E9690939A9398939655
:100F50008A808A928A8464502AEC06F08A848A9471
:100F60008A948A846450F6EC05F08A848A94968088
:100F7000938A938893861200646E9690939A9398BE
:100F800093968A908A928A8464502AEC06F08A8426
:100F90008A948A948A846450F6EC05F08A848A9450
:100FA0009680938A938893861200000E2B6E82A4FB
:100FB00004D0010E2A6E010E2B6E82A004D0020E08
:100FC0002A6E010E2B6E82A804D0040E2A6E010E2A
:100FD0002B6E2A501200000E626E6250050DF35007
:100FE000840FD96EDA6ADF6A622A080E6264F5D766
:100FF000880ED56EFC0ED76E180ED66EF294F28A5D
:10100000120096948D945B0E626E48EC07F05B5074
:1010100014EC08F05A0E626E48EC07F05A5014ECCB
:1010200008F0020E376E1200626EF29E6250050DDD
:10103000F350800FD96EDA6A05C0DEFF06C0DEFF0E
:1010400007C0DEFF08C0DEFFF28E1200000E216E28
:10105000000E396E948C948E260EAC6E900EAB6E94
:10106000B886440EAF6E000EB06E1200B9EC06F0FA
:10107000010EBCEC07F0000E6F6E030E6E6E615039
:101080008DEC06F01200590E626E48EC07F05950D4
:1010900014EC08F0000E0001DE6F000EDD6F120090
:1010A000FC0ED76E180ED66EF294010E0526000EB9
:1010B000062207220822120082B4120082B0120017
:1010C00082B81200060E2E6E12009282050EC26EBB
:1010D0000C0EC16E090EC06E1200626E6250C60F19
:1010E000D96EDA6ADF501200A69EA69C000EA96E89
:1010F0001200600ED36E400E9B6E12007E501200E6
:0A110000285012002F5012000101C8
:020000040020DA
:08000000FFFFFFFFFFFFFFFF00
:020000040030CA
:0E000000FF09191EFF0181FF03C003E003404A
:00000001FF
