:020000040000FA
:0400000009EF00F014
:0E0008007F822EEC08F07F9211003CEF06F094
:1002000000020406080A0C0E1214161A1C02040638
:10021000080A0C0E1214161A1C020406080A0C0E08
:100220001214161A1C020406080A0C0E1214161ACE
:100230001C43555252454E542054494D453A0055A1
:10024000534552204E414D453A00444553542E509B
:100250004F52543A005245432E504F52543A0000E8
:10026000D8D0010E2F6E2F5005EC07F0010E306E26
:10027000B3EC07F02C6E2D04D8A41200010E326EE0
:10028000040E306E5F50F2EC07F01200020E2F6E7B
:100290002F5005EC07F0020E306EB3EC07F02C6E19
:1002A0002D50D8B41200010E326E040E306E5F5025
:1002B000F2EC07F01200040E2F6E2F5005EC07F041
:1002C000030E306EB3EC07F02C6E2D50D8B4120034
:1002D000010E326E040E306E5F50F2EC07F0120029
:1002E000080E2F6E2F5005EC07F0000E306EB3ECA9
:1002F00007F02C6E2D50D8B41200010E326E040E91
:10030000306E5F50F2EC07F01200000E326E5F505C
:10031000646E656A666A676ABDEC06F064C0CAF01E
:1003200065C0CBF066C0CCF067C0CDF00001CD5108
:10033000CC11CB1104E1080ECA5DD8A012002D50DB
:10034000D8B412D0050E306E5E50646E656A666A6F
:10035000676ABDEC06F064C001F065C002F066C0DB
:1003600003F067C004F01200000E306E12003AEC89
:1003700008F05E50F2EC07F012000450031006E1A2
:10038000A00E015C0F0E0258D8A002D0000E2B6EFA
:10039000EDEC02F0070E306E120028502718D8A49A
:1003A00009D00450031006E1A10E015C0F0E0258A3
:1003B000D8A01AD02850060D770EF3240001F96F4B
:1003C000010EF420FA6F2B50F925D96E000EFA2198
:1003D000DA6E2950C60FE16EE26ADFCFE7FF292A05
:1003E000000E2B6E29C031F05CEC08F07D6E7D5064
:1003F000D8A4D7EC03F0000E306E28C027F03304E9
:10040000D8A41200000E306E0C0E286E000E336E53
:1004100012003050000AD8B424D7010AD8B436D715
:10042000030AD8B448D7010AD8B45AD7070AD8B4AF
:100430006CD7010AD8B49BD7030AD8B49ED7010A57
:10044000D8B4ABD70F0A1200A7D04550D8A406D015
:100450004A0E7A6EE1EC04F0456E1200010E496E10
:10046000010E716E000E93EC04F0000E456E12004A
:1004700060EC08F0030AD8A41200020E496E1200C4
:10048000000E4BEC08F00001D26F010E4BEC08F0AF
:100490000001D36F020E4BEC08F00001D46F030E85
:1004A0004BEC08F00001D56F030E496E14EC08F018
:1004B000000E716E000E93EC04F012004550D8A4AB
:1004C00006D0550E7A6EE1EC04F0456E1200040E73
:1004D000496E010E716E000E93EC04F0C6D760EC0D
:1004E00008F0030AD8A412005EEC08F0E806D8A4CD
:1004F0001200050E496E1200000E4BEC08F00001D0
:10050000CE6F010E4BEC08F00001CF6F020E4BECEA
:1005100008F00001D06F030E4BEC08F00001D16F22
:10052000060E496E14EC08F0000E716E000E93EC8E
:1005300004F012004550D8A406D03F0E7A6EE1ECCC
:1005400004F0456E1200070E496E010E716E000E2A
:1005500093EC04F08AD760EC08F0020AD8A41200E9
:10056000080E496E1200000E4BEC08F00001DA6F25
:10057000010E4BEC08F00001DB6F020E4BEC08F0B3
:100580000001DC6F090E496E14EC08F0000E716E6C
:10059000000E93EC04F012004950000AD8B455D76D
:1005A000010AD8B465D7030AD8B46AD7010AD8B407
:1005B00085D7070AD8B493D7010AD8B49DD7030AC0
:1005C000D8B4B8D7010AD8B4C6D70F0AD8B4CBD795
:1005D000010AD8B41200030A12002F04D8A421D0B3
:1005E0002C04D8A402D0000E286E020E2C18D8A419
:1005F0000AD0030E2B18D8A403D0000E2B6E01D006
:100600002B2A010E286E040E2C18D8A40AD0030E33
:100610002B18D8A403D0000E2B6E01D02B2A020E6B
:10062000286E020E2F18D8A419D02C04D8A402D0FA
:10063000030E286E020E2C18D8A402D0040E286EC9
:10064000040E2C18D8A402D0050E286E030E2B1809
:10065000D8A403D0000E2B6E01D02B2A040E2F1825
:10066000D8A419D02C04D8A402D0060E286E020EED
:100670002C18D8A402D0070E286E040E2C18D8A46B
:1006800002D0080E286E030E2B18D8A403D0000E3B
:100690002B6E01D02B2A080E2F18D8A412002C0480
:1006A000D8A404D0000E2B6E090E286E020E2C1852
:1006B000D8A409D02B04D8A403D0000E2B6E01D0EF
:1006C0002B2A0A0E286E040E2C18D8A412000B0E2A
:1006D000286E12007A6E630E646E26EC07F07AC004
:1006E0005AF079C059F0000E576E57C058F09394E5
:1006F00093929390000E7C6E000E7B6E000E716ED6
:10070000640E706E63506BEC06F0030E5FEC05F048
:10071000000E716E050E706E63506BEC06F0030EEA
:100720005FEC05F0000E716E010E706E63506BECA5
:1007300006F0030E5FEC05F0000E716E010E706E98
:1007400063506BEC06F0020E5FEC05F0000E716E6C
:10075000010E706E63506BEC06F0280E9AEC07F0F9
:1007600097EC06F0080E9AEC07F097EC06F0010EF5
:100770009AEC07F0000E716E030E706E63506BEC16
:1007800006F097EC06F0060E9AEC07F097EC06F0F0
:100790000F0E9AEC07F07B4A7C2A7CBEAFD77C50C8
:1007A00005E1020E7B5CD8B01200A8D712005E50A3
:1007B000646E656A666A676ABDEC06F064C001F043
:1007C00065C002F066C003F067C004F00450031077
:1007D0000BE1A00E015C0F0E0258D8B005D0010E3F
:1007E000716E295093EC04F00450031006E1A10E41
:1007F000015C0F0E0258D8A003D0292A29C031F07D
:100800002850060D780EF3247A6E010EF4207B6ECC
:100810002B507A24D96E000E7B20DA6EDF50D8A4DC
:1008200002D0010E2B6E040E2918D8A408D0000E99
:10083000316E2968010E336E010E2A6E14D0040E3B
:10084000296011D02850060D780EF3247A6E010E1F
:10085000F4207B6E2B507A24D96E000E7B20DA6E4A
:10086000DF5020EC05F0040E306E1200312E4C49A2
:1008700053542041434345535320504F494E545302
:10088000322E53484F5720434F4E4E2E2053544143
:1008900054555320332E4348414E47452043484149
:1008A00054204D4F44452020342E454E544552206F
:1008B00043484154204D4F4445202020352E4C497B
:1008C0005354204C415354204D5347532E20202045
:1008D000362E434C4F534520434F4E4E45435449CB
:1008E0004F4E202031000000000041424332000002
:1008F0004445463300004748493400004A4B4C35D4
:1009000000004D4E4F3600005051525337005455A1
:10091000563800005758595A39002A000000000084
:10092000302000000000786E36D07150D8B404D06A
:10093000000E756E400E03D0000E756E000E746EC4
:1009400078507424766E000E7520776E2FD078C0A4
:1009500076F0776A7104D8A402D0400E05D0020E5A
:100960007118D8A404D059507626000E0ED0030E6C
:100970007118D8A41BD05950726E736A400E72263B
:10098000000E732272507626735077220FD078C0F3
:1009900076F0776A0BD05A50010AD8B4F8D7030A18
:1009A000D8B4C3D7060AD8B4D2D7F1D797EC06F09B
:1009B000765080099AEC07F071C058F078C057F073
:1009C000120033D0000E0A6E000E096E010E566E34
:1009D000000E12007A5009247B6E7BC0F6FF020ED7
:1009E000F76E0800F5500009D8B40DD07A500924EC
:1009F0007B6E7BC0F6FF020EF76E0800F55020EC10
:100A000005F0094A0A2A7A5009247B6E7BC0F6FF5A
:100A1000020EF76E0800F5500009D8A4D9D7020ECF
:100A2000D6D7000E566E010E12005650000AD8B4EA
:100A3000C9D7010AD8B4CED7030AD8A41200F1D777
:100A4000796E97EC06F0795081EC07F0572A030E87
:100A50005A18D8A411D0130E57641200000E576E06
:100A6000582A030E586402D0000E586E58C071F018
:100A7000575093EC04F01200020E5A18D8A411D06B
:100A8000270E57641200000E576E582A010E586444
:100A900002D0000E586E58C071F0575093EC04F01D
:100AA00012005804D8A41200270E576402D0000E7A
:100AB000576E58C071F0575093EC04F01200656EF9
:100AC0009690939A939893968A908A928A848A842D
:100AD00065A603D0646A642A01D0646A8D506418E4
:100AE000FE0B64188D6E65A403D0646A642A01D07D
:100AF000646A643A64468A506418DF0B64188A6E2C
:100B000065A203D0646A642A01D0646A643A8A5098
:100B10006418EF0B64188A6E65A003D0646A642AB7
:100B200001D0646A6446644664468A506418F70BD0
:100B300064188A6E8A94120026D0010E266EC28234
:100B40001200C2B21200020E266EC4CF24F01200B0
:100B5000460E246005D0550E256E000E266E12003E
:100B6000030E266E1200B40E246405D0440E256ECA
:100B7000000E266E1200040E266E12004D0E256E1B
:100B8000000E266E12002650000AD8B4D6D7010AED
:100B9000D8B4D7D7030AD8B4DBD7010AD8B4E3D77F
:100BA000070AD8A41200EAD7656E65A603D0646A66
:100BB000642A01D0646A8D506418FE0B64188D6E2F
:100BC00065A403D0646A642A01D0646A643A644606
:100BD0008A506418DF0B64188A6E65A203D0646AB9
:100BE000642A01D0646A643A8A506418EF0B64186E
:100BF0008A6E65A003D0646A642A01D0646A644680
:100C0000644664468A506418F70B64188A6E1200B2
:100C1000656E65AE03D0646A642A01D0646A8D5043
:100C20006418FE0B64188D6E65AC03D0646A642A88
:100C300001D0646A643A64468A506418DF0B641811
:100C40008A6E65AA03D0646A642A01D0646A643A31
:100C50008A506418EF0B64188A6E65A803D0646A22
:100C6000642A01D0646A6446644664468A50641803
:100C7000F70B64188A6E12006C0EF66E080EF76E93
:100C8000000EF86E01EE00F010EEBAF00900F5CF9C
:100C9000EEFFE550E150FAE1C40EF66E100EF76E6D
:100CA000000EF86E0900F5CF7DF00900F5CF7EF05B
:100CB00000EE80F0790EEE6AE806FDE100EE01F04C
:100CC000630EEE6AE806FDE17F907F92000EF86EFB
:100CD0000001E2EF06F0786E7850F2EC07F070C099
:100CE00072F071C073F0723A733AF00E731672506C
:100CF0000F0B7312F00E721672C074F073C075F0A1
:100D0000000E75BEFF0E766E776E7850646E656A63
:100D1000666A676ABDEC06F07450645C755065588D
:100D20007650665877506758D8B01200D8D796805A
:100D3000938A938893868A908A826350F2EC07F0B4
:100D40008A848A84000E84B0010E706E8A948A941C
:100D50008A848A848A948A946350646E656A666A17
:100D6000676ABDEC06F06450651066106710D8A481
:100D700012007050D8B41200E3D7F29E05C06CF098
:100D800006C06DF007C06EF008C06FF0F28E6450C0
:100D9000050DF350800FD96EDA6ADECF68F0DECF32
:100DA00069F0DECF6AF0DECF6BF068506C5C646E89
:100DB00069506D58656E6A506E58666E6B506F580C
:100DC000676E120057EC08F0C9EC07F063EC07F00F
:100DD000100E796E020E6AEC03F045EC07F0000E7F
:100DE000716E000E93EC04F043EC08F0DFEC07F0BA
:100DF00004EC08F021EC08F052EC08F024EC02F0CE
:100E000030EC01F09CEC05F0F9D7646E6404D8A4D2
:100E100004D08B828D928B9A8B96020E6418D8A484
:100E200004D08B928D828B9A8B96040E6418D8A472
:100E300004D08B928D928B8A8B96080E6418D8A45E
:100E400012008B928D928B9A8B861200000E666E2A
:100E500005D0662A090E6618D8B412006650050D32
:100E6000F350840FD96EDA6ADE04D8B4F2D7665034
:100E7000050DF350840FD96EDA6A010EDF6E6450EF
:100E8000D96EDA6A66C0DFFF1200080E2F6E000E00
:100E9000296E5F0E646E26EC07F05E0E646E26EC23
:100EA00007F05E50F2EC07F0948494889480969258
:100EB000949A94969492000E306E000E2D6E2968CE
:100EC000000E2A6E1200000E496E000E456E000ED6
:100ED000426E620E646E26EC07F06250F2EC07F090
:100EE000610E646E26EC07F06150F2EC07F0600EC4
:100EF000646E26EC07F06050F2EC07F0000E476ECF
:100F00001200666E9690939A939893968A808A922E
:100F10008A84665008EC06F08A848A948A948A84CB
:100F20006650D4EC05F08A848A949680938A9388DC
:100F300093861200666E9690939A939893968A90F1
:100F40008A928A84665008EC06F08A848A948A948D
:100F50008A846650D4EC05F08A848A949680938AB9
:100F6000938893861200000E2D6E82A404D0010E89
:100F70002C6E010E2D6E82A004D0020E2C6E010E7E
:100F80002D6E82A804D0040E2C6E010E2D6E2C50F6
:100F90001200000E646E6450050DF350840FD96E7C
:100FA000DA6ADF6A642A080E6464F5D7880ED56EA3
:100FB000FC0ED76E180ED66EF294F28A120096943A
:100FC0008D945D0E646E26EC07F05D50F2EC07F038
:100FD0005C0E646E26EC07F05C50F2EC07F0020E3B
:100FE000396E1200646EF29E6450050DF350800F4E
:100FF000D96EDA6A05C0DEFF06C0DEFF07C0DEFF7D
:1010000008C0DEFFF28E1200000E236E000E3B6E53
:10101000948C948E260EAC6E900EAB6EB886440EF9
:10102000AF6E000EB06E120097EC06F0010E9AEC57
:1010300007F0000E716E030E706E63506BEC06F0DD
:1010400012005B0E646E26EC07F05B50F2EC07F0CA
:10105000000E0001DE6F000EDD6F1200FC0ED76E79
:10106000180ED66EF294010E0526000E06220722F7
:101070000822120082B4120082B0120082B812005C
:10108000060E306E12009282050EC26E0C0EC16EFC
:10109000090EC06E1200646E6450C60FD96EDA6A13
:1010A000DF501200A69EA69C000EA96E1200600ED4
:1010B000D36E400E9B6E12007E5012002A5012001A
:0610C00031501200010195
:020000040020DA
:08000000FFFFFFFFFFFFFFFF00
:020000040030CA
:0E000000FF09191EFF0181FF03C003E003404A
:00000001FF
